{
  "contractName": "buyToken",
  "abi": [
    {
      "inputs": [
        {
          "internalType": "uint256",
          "name": "_totalSupply",
          "type": "uint256"
        }
      ],
      "stateMutability": "nonpayable",
      "type": "constructor"
    },
    {
      "anonymous": false,
      "inputs": [
        {
          "indexed": true,
          "internalType": "address",
          "name": "owner",
          "type": "address"
        },
        {
          "indexed": true,
          "internalType": "address",
          "name": "spender",
          "type": "address"
        },
        {
          "indexed": false,
          "internalType": "uint256",
          "name": "value",
          "type": "uint256"
        }
      ],
      "name": "Approval",
      "type": "event"
    },
    {
      "anonymous": false,
      "inputs": [
        {
          "indexed": true,
          "internalType": "address",
          "name": "from",
          "type": "address"
        },
        {
          "indexed": true,
          "internalType": "address",
          "name": "to",
          "type": "address"
        },
        {
          "indexed": false,
          "internalType": "uint256",
          "name": "value",
          "type": "uint256"
        }
      ],
      "name": "Transfer",
      "type": "event"
    },
    {
      "anonymous": false,
      "inputs": [
        {
          "indexed": false,
          "internalType": "uint256",
          "name": "amount",
          "type": "uint256"
        }
      ],
      "name": "evt",
      "type": "event"
    },
    {
      "inputs": [
        {
          "internalType": "address",
          "name": "owner",
          "type": "address"
        },
        {
          "internalType": "address",
          "name": "spender",
          "type": "address"
        }
      ],
      "name": "allowance",
      "outputs": [
        {
          "internalType": "uint256",
          "name": "",
          "type": "uint256"
        }
      ],
      "stateMutability": "view",
      "type": "function",
      "constant": true
    },
    {
      "inputs": [
        {
          "internalType": "address",
          "name": "spender",
          "type": "address"
        },
        {
          "internalType": "uint256",
          "name": "amount",
          "type": "uint256"
        }
      ],
      "name": "approve",
      "outputs": [
        {
          "internalType": "bool",
          "name": "",
          "type": "bool"
        }
      ],
      "stateMutability": "nonpayable",
      "type": "function"
    },
    {
      "inputs": [
        {
          "internalType": "address",
          "name": "account",
          "type": "address"
        }
      ],
      "name": "balanceOf",
      "outputs": [
        {
          "internalType": "uint256",
          "name": "",
          "type": "uint256"
        }
      ],
      "stateMutability": "view",
      "type": "function",
      "constant": true
    },
    {
      "inputs": [],
      "name": "decimals",
      "outputs": [
        {
          "internalType": "uint8",
          "name": "",
          "type": "uint8"
        }
      ],
      "stateMutability": "view",
      "type": "function",
      "constant": true
    },
    {
      "inputs": [
        {
          "internalType": "address",
          "name": "spender",
          "type": "address"
        },
        {
          "internalType": "uint256",
          "name": "subtractedValue",
          "type": "uint256"
        }
      ],
      "name": "decreaseAllowance",
      "outputs": [
        {
          "internalType": "bool",
          "name": "",
          "type": "bool"
        }
      ],
      "stateMutability": "nonpayable",
      "type": "function"
    },
    {
      "inputs": [
        {
          "internalType": "address",
          "name": "spender",
          "type": "address"
        },
        {
          "internalType": "uint256",
          "name": "addedValue",
          "type": "uint256"
        }
      ],
      "name": "increaseAllowance",
      "outputs": [
        {
          "internalType": "bool",
          "name": "",
          "type": "bool"
        }
      ],
      "stateMutability": "nonpayable",
      "type": "function"
    },
    {
      "inputs": [],
      "name": "name",
      "outputs": [
        {
          "internalType": "string",
          "name": "",
          "type": "string"
        }
      ],
      "stateMutability": "view",
      "type": "function",
      "constant": true
    },
    {
      "inputs": [],
      "name": "owner",
      "outputs": [
        {
          "internalType": "address",
          "name": "",
          "type": "address"
        }
      ],
      "stateMutability": "view",
      "type": "function",
      "constant": true
    },
    {
      "inputs": [],
      "name": "symbol",
      "outputs": [
        {
          "internalType": "string",
          "name": "",
          "type": "string"
        }
      ],
      "stateMutability": "view",
      "type": "function",
      "constant": true
    },
    {
      "inputs": [],
      "name": "tokenPrice",
      "outputs": [
        {
          "internalType": "uint256",
          "name": "",
          "type": "uint256"
        }
      ],
      "stateMutability": "view",
      "type": "function",
      "constant": true
    },
    {
      "inputs": [],
      "name": "totalSupply",
      "outputs": [
        {
          "internalType": "uint256",
          "name": "",
          "type": "uint256"
        }
      ],
      "stateMutability": "view",
      "type": "function",
      "constant": true
    },
    {
      "inputs": [
        {
          "internalType": "address",
          "name": "recipient",
          "type": "address"
        },
        {
          "internalType": "uint256",
          "name": "amount",
          "type": "uint256"
        }
      ],
      "name": "transfer",
      "outputs": [
        {
          "internalType": "bool",
          "name": "",
          "type": "bool"
        }
      ],
      "stateMutability": "nonpayable",
      "type": "function"
    },
    {
      "inputs": [
        {
          "internalType": "address",
          "name": "sender",
          "type": "address"
        },
        {
          "internalType": "address",
          "name": "recipient",
          "type": "address"
        },
        {
          "internalType": "uint256",
          "name": "amount",
          "type": "uint256"
        }
      ],
      "name": "transferFrom",
      "outputs": [
        {
          "internalType": "bool",
          "name": "",
          "type": "bool"
        }
      ],
      "stateMutability": "nonpayable",
      "type": "function"
    },
    {
      "stateMutability": "payable",
      "type": "receive",
      "payable": true
    },
    {
      "inputs": [
        {
          "internalType": "uint256",
          "name": "_price",
          "type": "uint256"
        }
      ],
      "name": "setPrice",
      "outputs": [],
      "stateMutability": "nonpayable",
      "type": "function"
    },
    {
      "inputs": [],
      "name": "getPrice",
      "outputs": [
        {
          "internalType": "uint256",
          "name": "",
          "type": "uint256"
        }
      ],
      "stateMutability": "view",
      "type": "function",
      "constant": true
    }
  ],
  "bytecode": "0x608060405260026006553480156200001657600080fd5b5060405162001cec38038062001cec83398181016040528101906200003c919062000367565b6040518060400160405280600b81526020017f53616d706c65546f6b656e0000000000000000000000000000000000000000008152506040518060400160405280600681526020017f53546f6b656e00000000000000000000000000000000000000000000000000008152508160039080519060200190620000c0929190620002a0565b508060049080519060200190620000d9929190620002a0565b50505033600560006101000a81548173ffffffffffffffffffffffffffffffffffffffff021916908373ffffffffffffffffffffffffffffffffffffffff1602179055506200012f33826200013660201b60201c565b506200054b565b600073ffffffffffffffffffffffffffffffffffffffff168273ffffffffffffffffffffffffffffffffffffffff161415620001a9576040517f08c379a0000000000000000000000000000000000000000000000000000000008152600401620001a090620003e6565b60405180910390fd5b620001bd600083836200029b60201b60201c565b8060026000828254620001d1919062000436565b92505081905550806000808473ffffffffffffffffffffffffffffffffffffffff1673ffffffffffffffffffffffffffffffffffffffff168152602001908152602001600020600082825462000228919062000436565b925050819055508173ffffffffffffffffffffffffffffffffffffffff16600073ffffffffffffffffffffffffffffffffffffffff167fddf252ad1be2c89b69c2b068fc378daa952ba7f163c4a11628f55a4df523b3ef836040516200028f919062000408565b60405180910390a35050565b505050565b828054620002ae906200049d565b90600052602060002090601f016020900481019282620002d257600085556200031e565b82601f10620002ed57805160ff19168380011785556200031e565b828001600101855582156200031e579182015b828111156200031d57825182559160200191906001019062000300565b5b5090506200032d919062000331565b5090565b5b808211156200034c57600081600090555060010162000332565b5090565b600081519050620003618162000531565b92915050565b6000602082840312156200037a57600080fd5b60006200038a8482850162000350565b91505092915050565b6000620003a2601f8362000425565b91507f45524332303a206d696e7420746f20746865207a65726f2061646472657373006000830152602082019050919050565b620003e08162000493565b82525050565b60006020820190508181036000830152620004018162000393565b9050919050565b60006020820190506200041f6000830184620003d5565b92915050565b600082825260208201905092915050565b6000620004438262000493565b9150620004508362000493565b9250827fffffffffffffffffffffffffffffffffffffffffffffffffffffffffffffffff03821115620004885762000487620004d3565b5b828201905092915050565b6000819050919050565b60006002820490506001821680620004b657607f821691505b60208210811415620004cd57620004cc62000502565b5b50919050565b7f4e487b7100000000000000000000000000000000000000000000000000000000600052601160045260246000fd5b7f4e487b7100000000000000000000000000000000000000000000000000000000600052602260045260246000fd5b6200053c8162000493565b81146200054857600080fd5b50565b611791806200055b6000396000f3fe6080604052600436106100ec5760003560e01c80637ff9b5961161008a57806398d5fdca1161005957806398d5fdca14610321578063a457c2d71461034c578063a9059cbb14610389578063dd62ed3e146103c6576100fd565b80637ff9b596146102775780638da5cb5b146102a257806391b7f5ed146102cd57806395d89b41146102f6576100fd565b806323b872dd116100c657806323b872dd14610195578063313ce567146101d257806339509351146101fd57806370a082311461023a576100fd565b806306fdde0314610102578063095ea7b31461012d57806318160ddd1461016a576100fd565b366100fd576100fb3334610403565b005b600080fd5b34801561010e57600080fd5b5061011761047e565b60405161012491906113a6565b60405180910390f35b34801561013957600080fd5b50610154600480360381019061014f9190610f66565b610510565b604051610161919061138b565b60405180910390f35b34801561017657600080fd5b5061017f61052e565b60405161018c91906114c8565b60405180910390f35b3480156101a157600080fd5b506101bc60048036038101906101b79190610f17565b610538565b6040516101c9919061138b565b60405180910390f35b3480156101de57600080fd5b506101e7610639565b6040516101f491906114e3565b60405180910390f35b34801561020957600080fd5b50610224600480360381019061021f9190610f66565b610642565b604051610231919061138b565b60405180910390f35b34801561024657600080fd5b50610261600480360381019061025c9190610eb2565b6106ee565b60405161026e91906114c8565b60405180910390f35b34801561028357600080fd5b5061028c610736565b60405161029991906114c8565b60405180910390f35b3480156102ae57600080fd5b506102b761073c565b6040516102c49190611370565b60405180910390f35b3480156102d957600080fd5b506102f460048036038101906102ef9190610fa2565b610762565b005b34801561030257600080fd5b5061030b6107fc565b60405161031891906113a6565b60405180910390f35b34801561032d57600080fd5b5061033661088e565b60405161034391906114c8565b60405180910390f35b34801561035857600080fd5b50610373600480360381019061036e9190610f66565b610898565b604051610380919061138b565b60405180910390f35b34801561039557600080fd5b506103b060048036038101906103ab9190610f66565b61098c565b6040516103bd919061138b565b60405180910390f35b3480156103d257600080fd5b506103ed60048036038101906103e89190610edb565b6109aa565b6040516103fa91906114c8565b60405180910390f35b6000600654826104139190611570565b9050610442600560009054906101000a900473ffffffffffffffffffffffffffffffffffffffff168483610a31565b7f5405077408131854ba75766348988d5acae271855eecea2d727d1bb33ceb3dcf8160405161047191906114c8565b60405180910390a1505050565b60606003805461048d9061165d565b80601f01602080910402602001604051908101604052809291908181526020018280546104b99061165d565b80156105065780601f106104db57610100808354040283529160200191610506565b820191906000526020600020905b8154815290600101906020018083116104e957829003601f168201915b5050505050905090565b600061052461051d610cb0565b8484610cb8565b6001905092915050565b6000600254905090565b6000610545848484610a31565b6000600160008673ffffffffffffffffffffffffffffffffffffffff1673ffffffffffffffffffffffffffffffffffffffff1681526020019081526020016000206000610590610cb0565b73ffffffffffffffffffffffffffffffffffffffff1673ffffffffffffffffffffffffffffffffffffffff16815260200190815260200160002054905082811015610610576040517f08c379a000000000000000000000000000000000000000000000000000000000815260040161060790611448565b60405180910390fd5b61062d8561061c610cb0565b858461062891906115a1565b610cb8565b60019150509392505050565b60006012905090565b60006106e461064f610cb0565b84846001600061065d610cb0565b73ffffffffffffffffffffffffffffffffffffffff1673ffffffffffffffffffffffffffffffffffffffff16815260200190815260200160002060008873ffffffffffffffffffffffffffffffffffffffff1673ffffffffffffffffffffffffffffffffffffffff168152602001908152602001600020546106df919061151a565b610cb8565b6001905092915050565b60008060008373ffffffffffffffffffffffffffffffffffffffff1673ffffffffffffffffffffffffffffffffffffffff168152602001908152602001600020549050919050565b60065481565b600560009054906101000a900473ffffffffffffffffffffffffffffffffffffffff1681565b600560009054906101000a900473ffffffffffffffffffffffffffffffffffffffff1673ffffffffffffffffffffffffffffffffffffffff163373ffffffffffffffffffffffffffffffffffffffff16146107f2576040517f08c379a00000000000000000000000000000000000000000000000000000000081526004016107e990611428565b60405180910390fd5b8060068190555050565b60606004805461080b9061165d565b80601f01602080910402602001604051908101604052809291908181526020018280546108379061165d565b80156108845780601f1061085957610100808354040283529160200191610884565b820191906000526020600020905b81548152906001019060200180831161086757829003601f168201915b5050505050905090565b6000600654905090565b600080600160006108a7610cb0565b73ffffffffffffffffffffffffffffffffffffffff1673ffffffffffffffffffffffffffffffffffffffff16815260200190815260200160002060008573ffffffffffffffffffffffffffffffffffffffff1673ffffffffffffffffffffffffffffffffffffffff16815260200190815260200160002054905082811015610964576040517f08c379a000000000000000000000000000000000000000000000000000000000815260040161095b906114a8565b60405180910390fd5b61098161096f610cb0565b85858461097c91906115a1565b610cb8565b600191505092915050565b60006109a0610999610cb0565b8484610a31565b6001905092915050565b6000600160008473ffffffffffffffffffffffffffffffffffffffff1673ffffffffffffffffffffffffffffffffffffffff16815260200190815260200160002060008373ffffffffffffffffffffffffffffffffffffffff1673ffffffffffffffffffffffffffffffffffffffff16815260200190815260200160002054905092915050565b600073ffffffffffffffffffffffffffffffffffffffff168373ffffffffffffffffffffffffffffffffffffffff161415610aa1576040517f08c379a0000000000000000000000000000000000000000000000000000000008152600401610a9890611468565b60405180910390fd5b600073ffffffffffffffffffffffffffffffffffffffff168273ffffffffffffffffffffffffffffffffffffffff161415610b11576040517f08c379a0000000000000000000000000000000000000000000000000000000008152600401610b08906113c8565b60405180910390fd5b610b1c838383610e83565b60008060008573ffffffffffffffffffffffffffffffffffffffff1673ffffffffffffffffffffffffffffffffffffffff16815260200190815260200160002054905081811015610ba2576040517f08c379a0000000000000000000000000000000000000000000000000000000008152600401610b9990611408565b60405180910390fd5b8181610bae91906115a1565b6000808673ffffffffffffffffffffffffffffffffffffffff1673ffffffffffffffffffffffffffffffffffffffff16815260200190815260200160002081905550816000808573ffffffffffffffffffffffffffffffffffffffff1673ffffffffffffffffffffffffffffffffffffffff1681526020019081526020016000206000828254610c3e919061151a565b925050819055508273ffffffffffffffffffffffffffffffffffffffff168473ffffffffffffffffffffffffffffffffffffffff167fddf252ad1be2c89b69c2b068fc378daa952ba7f163c4a11628f55a4df523b3ef84604051610ca291906114c8565b60405180910390a350505050565b600033905090565b600073ffffffffffffffffffffffffffffffffffffffff168373ffffffffffffffffffffffffffffffffffffffff161415610d28576040517f08c379a0000000000000000000000000000000000000000000000000000000008152600401610d1f90611488565b60405180910390fd5b600073ffffffffffffffffffffffffffffffffffffffff168273ffffffffffffffffffffffffffffffffffffffff161415610d98576040517f08c379a0000000000000000000000000000000000000000000000000000000008152600401610d8f906113e8565b60405180910390fd5b80600160008573ffffffffffffffffffffffffffffffffffffffff1673ffffffffffffffffffffffffffffffffffffffff16815260200190815260200160002060008473ffffffffffffffffffffffffffffffffffffffff1673ffffffffffffffffffffffffffffffffffffffff168152602001908152602001600020819055508173ffffffffffffffffffffffffffffffffffffffff168373ffffffffffffffffffffffffffffffffffffffff167f8c5be1e5ebec7d5bd14f71427d1e84f3dd0314c0f7b2291e5b200ac8c7c3b92583604051610e7691906114c8565b60405180910390a3505050565b505050565b600081359050610e978161172d565b92915050565b600081359050610eac81611744565b92915050565b600060208284031215610ec457600080fd5b6000610ed284828501610e88565b91505092915050565b60008060408385031215610eee57600080fd5b6000610efc85828601610e88565b9250506020610f0d85828601610e88565b9150509250929050565b600080600060608486031215610f2c57600080fd5b6000610f3a86828701610e88565b9350506020610f4b86828701610e88565b9250506040610f5c86828701610e9d565b9150509250925092565b60008060408385031215610f7957600080fd5b6000610f8785828601610e88565b9250506020610f9885828601610e9d565b9150509250929050565b600060208284031215610fb457600080fd5b6000610fc284828501610e9d565b91505092915050565b610fd4816115d5565b82525050565b610fe3816115e7565b82525050565b6000610ff4826114fe565b610ffe8185611509565b935061100e81856020860161162a565b6110178161171c565b840191505092915050565b600061102f602383611509565b91507f45524332303a207472616e7366657220746f20746865207a65726f206164647260008301527f65737300000000000000000000000000000000000000000000000000000000006020830152604082019050919050565b6000611095602283611509565b91507f45524332303a20617070726f766520746f20746865207a65726f20616464726560008301527f73730000000000000000000000000000000000000000000000000000000000006020830152604082019050919050565b60006110fb602683611509565b91507f45524332303a207472616e7366657220616d6f756e742065786365656473206260008301527f616c616e636500000000000000000000000000000000000000000000000000006020830152604082019050919050565b6000611161602e83611509565b91507f596f752073686f756c64206265206f776e657220666f722063616c6c696e672060008301527f746869732066756e6374696f6e210000000000000000000000000000000000006020830152604082019050919050565b60006111c7602883611509565b91507f45524332303a207472616e7366657220616d6f756e742065786365656473206160008301527f6c6c6f77616e63650000000000000000000000000000000000000000000000006020830152604082019050919050565b600061122d602583611509565b91507f45524332303a207472616e736665722066726f6d20746865207a65726f20616460008301527f64726573730000000000000000000000000000000000000000000000000000006020830152604082019050919050565b6000611293602483611509565b91507f45524332303a20617070726f76652066726f6d20746865207a65726f2061646460008301527f72657373000000000000000000000000000000000000000000000000000000006020830152604082019050919050565b60006112f9602583611509565b91507f45524332303a2064656372656173656420616c6c6f77616e63652062656c6f7760008301527f207a65726f0000000000000000000000000000000000000000000000000000006020830152604082019050919050565b61135b81611613565b82525050565b61136a8161161d565b82525050565b60006020820190506113856000830184610fcb565b92915050565b60006020820190506113a06000830184610fda565b92915050565b600060208201905081810360008301526113c08184610fe9565b905092915050565b600060208201905081810360008301526113e181611022565b9050919050565b6000602082019050818103600083015261140181611088565b9050919050565b60006020820190508181036000830152611421816110ee565b9050919050565b6000602082019050818103600083015261144181611154565b9050919050565b60006020820190508181036000830152611461816111ba565b9050919050565b6000602082019050818103600083015261148181611220565b9050919050565b600060208201905081810360008301526114a181611286565b9050919050565b600060208201905081810360008301526114c1816112ec565b9050919050565b60006020820190506114dd6000830184611352565b92915050565b60006020820190506114f86000830184611361565b92915050565b600081519050919050565b600082825260208201905092915050565b600061152582611613565b915061153083611613565b9250827fffffffffffffffffffffffffffffffffffffffffffffffffffffffffffffffff038211156115655761156461168f565b5b828201905092915050565b600061157b82611613565b915061158683611613565b925082611596576115956116be565b5b828204905092915050565b60006115ac82611613565b91506115b783611613565b9250828210156115ca576115c961168f565b5b828203905092915050565b60006115e0826115f3565b9050919050565b60008115159050919050565b600073ffffffffffffffffffffffffffffffffffffffff82169050919050565b6000819050919050565b600060ff82169050919050565b60005b8381101561164857808201518184015260208101905061162d565b83811115611657576000848401525b50505050565b6000600282049050600182168061167557607f821691505b60208210811415611689576116886116ed565b5b50919050565b7f4e487b7100000000000000000000000000000000000000000000000000000000600052601160045260246000fd5b7f4e487b7100000000000000000000000000000000000000000000000000000000600052601260045260246000fd5b7f4e487b7100000000000000000000000000000000000000000000000000000000600052602260045260246000fd5b6000601f19601f8301169050919050565b611736816115d5565b811461174157600080fd5b50565b61174d81611613565b811461175857600080fd5b5056fea2646970667358221220b0c6ffe116aed70712ab6f5eef4182b2b8691de0d62382d0d9459a2483e6d51b64736f6c63430008000033",
  "immutableReferences": {},
  "source": "//SPDX-License-Identifier: UNLICENSED\r\npragma solidity 0.8.0;\r\n//import \"D:/sampleProject/node_modules/@openzeppelin/contracts/token/ERC20/ERC20.sol\";\r\nimport \"@openzeppelin/contracts/token/ERC20/ERC20.sol\";\r\n\r\ncontract buyToken is ERC20{\r\n    address public owner;\r\n    uint256 public tokenPrice=2;\r\n    event evt(uint256 amount);\r\n    \r\n    constructor(uint256 _totalSupply) ERC20(\"SampleToken\",\"SToken\"){\r\n        owner=msg.sender;\r\n        _mint(msg.sender,_totalSupply);\r\n    }\r\n    \r\n    receive() external payable{\r\n        sendToken(msg.sender,msg.value);  \r\n    }\r\n    \r\n    function sendToken(address _to,uint256 _amount) internal{// making it internal so can't be called publically.(or use msg.value so if called publically anyone needs to send the value)\r\n        uint256 tokenToSend=(_amount/tokenPrice);\r\n        _transfer(owner,_to,tokenToSend);\r\n        emit evt(tokenToSend);\r\n    }\r\n    \r\n    function setPrice(uint256 _price) public{\r\n        require(msg.sender==owner,\"You should be owner for calling this function!\");\r\n        tokenPrice=_price;\r\n    }\r\n    \r\n     function getPrice() public view returns (uint) {\r\n    return tokenPrice;\r\n  }\r\n}",
  "sourcePath": "D:/sampleProject/contracts/buyToken.sol",
  "compiler": {
    "name": "solc",
    "version": "0.8.0+commit.c7dfd78e.Emscripten.clang"
  },
  "schemaVersion": "3.3.4",
  "updatedAt": "2021-06-14T10:38:24.812Z",
  "networkType": "ethereum",
  "devdoc": {
    "kind": "dev",
    "methods": {
      "allowance(address,address)": {
        "details": "See {IERC20-allowance}."
      },
      "approve(address,uint256)": {
        "details": "See {IERC20-approve}. Requirements: - `spender` cannot be the zero address."
      },
      "balanceOf(address)": {
        "details": "See {IERC20-balanceOf}."
      },
      "decimals()": {
        "details": "Returns the number of decimals used to get its user representation. For example, if `decimals` equals `2`, a balance of `505` tokens should be displayed to a user as `5,05` (`505 / 10 ** 2`). Tokens usually opt for a value of 18, imitating the relationship between Ether and Wei. This is the value {ERC20} uses, unless this function is overridden; NOTE: This information is only used for _display_ purposes: it in no way affects any of the arithmetic of the contract, including {IERC20-balanceOf} and {IERC20-transfer}."
      },
      "decreaseAllowance(address,uint256)": {
        "details": "Atomically decreases the allowance granted to `spender` by the caller. This is an alternative to {approve} that can be used as a mitigation for problems described in {IERC20-approve}. Emits an {Approval} event indicating the updated allowance. Requirements: - `spender` cannot be the zero address. - `spender` must have allowance for the caller of at least `subtractedValue`."
      },
      "increaseAllowance(address,uint256)": {
        "details": "Atomically increases the allowance granted to `spender` by the caller. This is an alternative to {approve} that can be used as a mitigation for problems described in {IERC20-approve}. Emits an {Approval} event indicating the updated allowance. Requirements: - `spender` cannot be the zero address."
      },
      "name()": {
        "details": "Returns the name of the token."
      },
      "symbol()": {
        "details": "Returns the symbol of the token, usually a shorter version of the name."
      },
      "totalSupply()": {
        "details": "See {IERC20-totalSupply}."
      },
      "transfer(address,uint256)": {
        "details": "See {IERC20-transfer}. Requirements: - `recipient` cannot be the zero address. - the caller must have a balance of at least `amount`."
      },
      "transferFrom(address,address,uint256)": {
        "details": "See {IERC20-transferFrom}. Emits an {Approval} event indicating the updated allowance. This is not required by the EIP. See the note at the beginning of {ERC20}. Requirements: - `sender` and `recipient` cannot be the zero address. - `sender` must have a balance of at least `amount`. - the caller must have allowance for ``sender``'s tokens of at least `amount`."
      }
    },
    "version": 1
  },
  "userdoc": {
    "kind": "user",
    "methods": {},
    "version": 1
  }
}